{
    "contractName": "JointSavings",
    "abi": [
        {
            "inputs": [],
            "name": "contractBalance",
            "outputs": [
                {
                    "internalType": "uint256",
                    "name": "",
                    "type": "uint256"
                }
            ],
            "stateMutability": "view",
            "type": "function"
        },
        {
            "inputs": [],
            "name": "deposit",
            "outputs": [],
            "stateMutability": "payable",
            "type": "function"
        },
        {
            "inputs": [],
            "name": "lastToWithdraw",
            "outputs": [
                {
                    "internalType": "address",
                    "name": "",
                    "type": "address"
                }
            ],
            "stateMutability": "view",
            "type": "function"
        },
        {
            "inputs": [],
            "name": "lastWithdrawAmount",
            "outputs": [
                {
                    "internalType": "uint256",
                    "name": "",
                    "type": "uint256"
                }
            ],
            "stateMutability": "view",
            "type": "function"
        },
        {
            "inputs": [
                {
                    "internalType": "address payable",
                    "name": "account1",
                    "type": "address"
                },
                {
                    "internalType": "address payable",
                    "name": "account2",
                    "type": "address"
                }
            ],
            "name": "setAccounts",
            "outputs": [],
            "stateMutability": "nonpayable",
            "type": "function"
        },
        {
            "inputs": [
                {
                    "internalType": "uint256",
                    "name": "amount",
                    "type": "uint256"
                },
                {
                    "internalType": "address payable",
                    "name": "recipient",
                    "type": "address"
                }
            ],
            "name": "withdraw",
            "outputs": [],
            "stateMutability": "nonpayable",
            "type": "function"
        },
        {
            "stateMutability": "payable",
            "type": "receive"
        }
    ],
    "bytecode": "608060405234801561001057600080fd5b50610368806100206000396000f3fe6080604052600436106100585760003560e01c8062f714ce1461007c57806343e026051461009e5780638b7afe2e146100e7578063b831461e14610110578063d0e30db014610126578063e15e1c951461012f57600080fd5b3661007757346004600082825461006f9190610299565b925050819055005b600080fd5b34801561008857600080fd5b5061009c6100973660046102dc565b610167565b005b3480156100aa57600080fd5b5061009c6100b9366004610308565b600080546001600160a01b039384166001600160a01b03199182161790915560018054929093169116179055565b3480156100f357600080fd5b506100fd60045481565b6040519081526020015b60405180910390f35b34801561011c57600080fd5b506100fd60035481565b61009c47600455565b34801561013b57600080fd5b5060025461014f906001600160a01b031681565b6040516001600160a01b039091168152602001610107565b6000546001600160a01b038281169116148061019057506001546001600160a01b038281169116145b6101e15760405162461bcd60e51b815260206004820152601b60248201527f596f7520646f6e2774206f776e2074686973206163636f756e7421000000000060448201526064015b60405180910390fd5b814710156102275760405162461bcd60e51b8152602060048201526013602482015272496e73756666696369656e742066756e64732160681b60448201526064016101d8565b6002546001600160a01b0382811691161461025857600280546001600160a01b0319166001600160a01b0383161790555b6040516001600160a01b0382169083156108fc029084906000818181858888f1935050505015801561028e573d6000803e3d6000fd5b505060035547600455565b808201808211156102ba57634e487b7160e01b600052601160045260246000fd5b92915050565b80356001600160a01b03811681146102d757600080fd5b919050565b600080604083850312156102ef57600080fd5b823591506102ff602084016102c0565b90509250929050565b6000806040838503121561031b57600080fd5b610324836102c0565b91506102ff602084016102c056fea2646970667358221220c4e72a58af5ae87fbf8538d6330fa5b6eee8db05f941175558740836e53d06fc64736f6c63430008110033",
    "sourcePath": "/home/linux2/Desktop/UofT/Module20/Starter_Code/joint_savings.sol",
    "compiler": {
        "name": "solc",
        "version": "0.8.17+commit.8df45f5f"
    },
    "functionHashes": {
        "contractBalance()": "8b7afe2e",
        "deposit()": "d0e30db0",
        "lastToWithdraw()": "e15e1c95",
        "lastWithdrawAmount()": "b831461e",
        "setAccounts(address,address)": "43e02605",
        "withdraw(uint256,address)": "00f714ce"
    },
    "gasEstimates": {
        "creation": {
            "codeDepositCost": "174400",
            "executionCost": "220",
            "totalCost": "174620"
        },
        "external": {
            "contractBalance()": "2306",
            "deposit()": "22282",
            "lastToWithdraw()": "2425",
            "lastWithdrawAmount()": "2328",
            "setAccounts(address,address)": "infinite",
            "withdraw(uint256,address)": "infinite"
        }
    }
}