{
	"joint_savings.sol": {
		"JointSavings": {
			"abi": [
				{
					"inputs": [],
					"name": "contractBalance",
					"outputs": [
						{
							"internalType": "uint256",
							"name": "",
							"type": "uint256"
						}
					],
					"stateMutability": "view",
					"type": "function"
				},
				{
					"inputs": [],
					"name": "deposit",
					"outputs": [],
					"stateMutability": "payable",
					"type": "function"
				},
				{
					"inputs": [],
					"name": "lastToWithdraw",
					"outputs": [
						{
							"internalType": "address",
							"name": "",
							"type": "address"
						}
					],
					"stateMutability": "view",
					"type": "function"
				},
				{
					"inputs": [],
					"name": "lastWithdrawAmount",
					"outputs": [
						{
							"internalType": "uint256",
							"name": "",
							"type": "uint256"
						}
					],
					"stateMutability": "view",
					"type": "function"
				},
				{
					"inputs": [
						{
							"internalType": "address payable",
							"name": "account1",
							"type": "address"
						},
						{
							"internalType": "address payable",
							"name": "account2",
							"type": "address"
						}
					],
					"name": "setAccounts",
					"outputs": [],
					"stateMutability": "nonpayable",
					"type": "function"
				},
				{
					"inputs": [
						{
							"internalType": "uint256",
							"name": "amount",
							"type": "uint256"
						},
						{
							"internalType": "address payable",
							"name": "recipient",
							"type": "address"
						}
					],
					"name": "withdraw",
					"outputs": [],
					"stateMutability": "nonpayable",
					"type": "function"
				},
				{
					"stateMutability": "payable",
					"type": "receive"
				}
			],
			"devdoc": {
				"kind": "dev",
				"methods": {},
				"version": 1
			},
			"evm": {
				"assembly": "    /* \"joint_savings.sol\":898:4222  contract JointSavings {... */\n  mstore(0x40, 0x80)\n  callvalue\n  dup1\n  iszero\n  tag_1\n  jumpi\n  0x00\n  dup1\n  revert\ntag_1:\n  pop\n  dataSize(sub_0)\n  dup1\n  dataOffset(sub_0)\n  0x00\n  codecopy\n  0x00\n  return\nstop\n\nsub_0: assembly {\n        /* \"joint_savings.sol\":898:4222  contract JointSavings {... */\n      mstore(0x40, 0x80)\n      jumpi(tag_1, lt(calldatasize, 0x04))\n      shr(0xe0, calldataload(0x00))\n      dup1\n      0xf714ce\n      eq\n      tag_3\n      jumpi\n      dup1\n      0x43e02605\n      eq\n      tag_4\n      jumpi\n      dup1\n      0x8b7afe2e\n      eq\n      tag_5\n      jumpi\n      dup1\n      0xb831461e\n      eq\n      tag_6\n      jumpi\n      dup1\n      0xd0e30db0\n      eq\n      tag_7\n      jumpi\n      dup1\n      0xe15e1c95\n      eq\n      tag_8\n      jumpi\n      jump(tag_2)\n    tag_1:\n      jumpi(tag_2, calldatasize)\n        /* \"joint_savings.sol\":4204:4213  msg.value */\n      callvalue\n        /* \"joint_savings.sol\":4186:4201  contractBalance */\n      0x04\n      0x00\n        /* \"joint_savings.sol\":4186:4213  contractBalance+= msg.value */\n      dup3\n      dup3\n      sload\n      tag_11\n      swap2\n      swap1\n      tag_12\n      jump\t// in\n    tag_11:\n      swap3\n      pop\n      pop\n      dup2\n      swap1\n      sstore\n      stop\n        /* \"joint_savings.sol\":898:4222  contract JointSavings {... */\n    tag_2:\n      0x00\n      dup1\n      revert\n        /* \"joint_savings.sol\":1601:3218  function withdraw(uint amount, address payable recipient) public {... */\n    tag_3:\n      callvalue\n      dup1\n      iszero\n      tag_13\n      jumpi\n      0x00\n      dup1\n      revert\n    tag_13:\n      pop\n      tag_14\n      0x04\n      dup1\n      calldatasize\n      sub\n      dup2\n      add\n      swap1\n      tag_15\n      swap2\n      swap1\n      tag_16\n      jump\t// in\n    tag_15:\n      tag_17\n      jump\t// in\n    tag_14:\n      stop\n        /* \"joint_savings.sol\":3699:3977  function setAccounts(address payable account1, address payable account2) public{... */\n    tag_4:\n      callvalue\n      dup1\n      iszero\n      tag_18\n      jumpi\n      0x00\n      dup1\n      revert\n    tag_18:\n      pop\n      tag_19\n      0x04\n      dup1\n      calldatasize\n      sub\n      dup2\n      add\n      swap1\n      tag_20\n      swap2\n      swap1\n      tag_21\n      jump\t// in\n    tag_20:\n      tag_22\n      jump\t// in\n    tag_19:\n      stop\n        /* \"joint_savings.sol\":1398:1425  uint public contractBalance */\n    tag_5:\n      callvalue\n      dup1\n      iszero\n      tag_23\n      jumpi\n      0x00\n      dup1\n      revert\n    tag_23:\n      pop\n      tag_24\n      tag_25\n      jump\t// in\n    tag_24:\n      mload(0x40)\n      tag_26\n      swap2\n      swap1\n      tag_27\n      jump\t// in\n    tag_26:\n      mload(0x40)\n      dup1\n      swap2\n      sub\n      swap1\n      return\n        /* \"joint_savings.sol\":1362:1392  uint public lastWithdrawAmount */\n    tag_6:\n      callvalue\n      dup1\n      iszero\n      tag_28\n      jumpi\n      0x00\n      dup1\n      revert\n    tag_28:\n      pop\n      tag_29\n      tag_30\n      jump\t// in\n    tag_29:\n      mload(0x40)\n      tag_31\n      swap2\n      swap1\n      tag_27\n      jump\t// in\n    tag_31:\n      mload(0x40)\n      dup1\n      swap2\n      sub\n      swap1\n      return\n        /* \"joint_savings.sol\":3284:3550  function deposit() public payable {... */\n    tag_7:\n      tag_32\n      tag_33\n      jump\t// in\n    tag_32:\n      stop\n        /* \"joint_savings.sol\":1327:1356  address public lastToWithdraw */\n    tag_8:\n      callvalue\n      dup1\n      iszero\n      tag_34\n      jumpi\n      0x00\n      dup1\n      revert\n    tag_34:\n      pop\n      tag_35\n      tag_36\n      jump\t// in\n    tag_35:\n      mload(0x40)\n      tag_37\n      swap2\n      swap1\n      tag_38\n      jump\t// in\n    tag_37:\n      mload(0x40)\n      dup1\n      swap2\n      sub\n      swap1\n      return\n        /* \"joint_savings.sol\":1601:3218  function withdraw(uint amount, address payable recipient) public {... */\n    tag_17:\n        /* \"joint_savings.sol\":1955:1965  accountOne */\n      0x00\n      dup1\n      sload\n      swap1\n      0x0100\n      exp\n      swap1\n      div\n      0xffffffffffffffffffffffffffffffffffffffff\n      and\n        /* \"joint_savings.sol\":1942:1965  recipient == accountOne */\n      0xffffffffffffffffffffffffffffffffffffffff\n      and\n        /* \"joint_savings.sol\":1942:1951  recipient */\n      dup2\n        /* \"joint_savings.sol\":1942:1965  recipient == accountOne */\n      0xffffffffffffffffffffffffffffffffffffffff\n      and\n      eq\n        /* \"joint_savings.sol\":1942:1992  recipient == accountOne || recipient == accountTwo */\n      dup1\n      tag_40\n      jumpi\n      pop\n        /* \"joint_savings.sol\":1982:1992  accountTwo */\n      0x01\n      0x00\n      swap1\n      sload\n      swap1\n      0x0100\n      exp\n      swap1\n      div\n      0xffffffffffffffffffffffffffffffffffffffff\n      and\n        /* \"joint_savings.sol\":1969:1992  recipient == accountTwo */\n      0xffffffffffffffffffffffffffffffffffffffff\n      and\n        /* \"joint_savings.sol\":1969:1978  recipient */\n      dup2\n        /* \"joint_savings.sol\":1969:1992  recipient == accountTwo */\n      0xffffffffffffffffffffffffffffffffffffffff\n      and\n      eq\n        /* \"joint_savings.sol\":1942:1992  recipient == accountOne || recipient == accountTwo */\n    tag_40:\n        /* \"joint_savings.sol\":1933:2024  require (recipient == accountOne || recipient == accountTwo, \"You don't own this account!\") */\n      tag_41\n      jumpi\n      mload(0x40)\n      0x08c379a000000000000000000000000000000000000000000000000000000000\n      dup2\n      mstore\n      0x04\n      add\n      tag_42\n      swap1\n      tag_43\n      jump\t// in\n    tag_42:\n      mload(0x40)\n      dup1\n      swap2\n      sub\n      swap1\n      revert\n    tag_41:\n        /* \"joint_savings.sol\":2312:2318  amount */\n      dup2\n        /* \"joint_savings.sol\":2287:2308  address(this).balance */\n      selfbalance\n        /* \"joint_savings.sol\":2287:2318  address(this).balance >= amount */\n      lt\n      iszero\n        /* \"joint_savings.sol\":2278:2342  require (address(this).balance >= amount, 'Insufficient funds!') */\n      tag_44\n      jumpi\n      mload(0x40)\n      0x08c379a000000000000000000000000000000000000000000000000000000000\n      dup2\n      mstore\n      0x04\n      add\n      tag_45\n      swap1\n      tag_46\n      jump\t// in\n    tag_45:\n      mload(0x40)\n      dup1\n      swap2\n      sub\n      swap1\n      revert\n    tag_44:\n        /* \"joint_savings.sol\":2608:2617  recipient */\n      dup1\n        /* \"joint_savings.sol\":2590:2617  lastToWithdraw != recipient */\n      0xffffffffffffffffffffffffffffffffffffffff\n      and\n        /* \"joint_savings.sol\":2590:2604  lastToWithdraw */\n      0x02\n      0x00\n      swap1\n      sload\n      swap1\n      0x0100\n      exp\n      swap1\n      div\n      0xffffffffffffffffffffffffffffffffffffffff\n      and\n        /* \"joint_savings.sol\":2590:2617  lastToWithdraw != recipient */\n      0xffffffffffffffffffffffffffffffffffffffff\n      and\n      eq\n        /* \"joint_savings.sol\":2586:2667  if (lastToWithdraw != recipient){... */\n      tag_47\n      jumpi\n        /* \"joint_savings.sol\":2647:2656  recipient */\n      dup1\n        /* \"joint_savings.sol\":2632:2646  lastToWithdraw */\n      0x02\n      0x00\n        /* \"joint_savings.sol\":2632:2656  lastToWithdraw=recipient */\n      0x0100\n      exp\n      dup2\n      sload\n      dup2\n      0xffffffffffffffffffffffffffffffffffffffff\n      mul\n      not\n      and\n      swap1\n      dup4\n      0xffffffffffffffffffffffffffffffffffffffff\n      and\n      mul\n      or\n      swap1\n      sstore\n      pop\n        /* \"joint_savings.sol\":2586:2667  if (lastToWithdraw != recipient){... */\n    tag_47:\n        /* \"joint_savings.sol\":2816:2825  recipient */\n      dup1\n        /* \"joint_savings.sol\":2816:2834  recipient.transfer */\n      0xffffffffffffffffffffffffffffffffffffffff\n      and\n        /* \"joint_savings.sol\":2816:2842  recipient.transfer(amount) */\n      0x08fc\n        /* \"joint_savings.sol\":2835:2841  amount */\n      dup4\n        /* \"joint_savings.sol\":2816:2842  recipient.transfer(amount) */\n      swap1\n      dup2\n      iszero\n      mul\n      swap1\n      mload(0x40)\n      0x00\n      mload(0x40)\n      dup1\n      dup4\n      sub\n      dup2\n      dup6\n      dup9\n      dup9\n      call\n      swap4\n      pop\n      pop\n      pop\n      pop\n      iszero\n      dup1\n      iszero\n      tag_49\n      jumpi\n      returndatasize\n      0x00\n      dup1\n      returndatacopy\n      revert(0x00, returndatasize)\n    tag_49:\n      pop\n        /* \"joint_savings.sol\":2956:2962  amount */\n      dup2\n        /* \"joint_savings.sol\":2935:2953  lastWithdrawAmount */\n      0x03\n        /* \"joint_savings.sol\":2935:2962  lastWithdrawAmount = amount */\n      dup2\n      swap1\n      sstore\n      pop\n        /* \"joint_savings.sol\":3190:3211  address(this).balance */\n      selfbalance\n        /* \"joint_savings.sol\":3172:3187  contractBalance */\n      0x04\n        /* \"joint_savings.sol\":3172:3211  contractBalance = address(this).balance */\n      dup2\n      swap1\n      sstore\n      pop\n        /* \"joint_savings.sol\":1601:3218  function withdraw(uint amount, address payable recipient) public {... */\n      pop\n      pop\n      jump\t// out\n        /* \"joint_savings.sol\":3699:3977  function setAccounts(address payable account1, address payable account2) public{... */\n    tag_22:\n        /* \"joint_savings.sol\":3931:3939  account1 */\n      dup2\n        /* \"joint_savings.sol\":3918:3928  accountOne */\n      0x00\n      dup1\n        /* \"joint_savings.sol\":3918:3939  accountOne = account1 */\n      0x0100\n      exp\n      dup2\n      sload\n      dup2\n      0xffffffffffffffffffffffffffffffffffffffff\n      mul\n      not\n      and\n      swap1\n      dup4\n      0xffffffffffffffffffffffffffffffffffffffff\n      and\n      mul\n      or\n      swap1\n      sstore\n      pop\n        /* \"joint_savings.sol\":3962:3970  account2 */\n      dup1\n        /* \"joint_savings.sol\":3949:3959  accountTwo */\n      0x01\n      0x00\n        /* \"joint_savings.sol\":3949:3970  accountTwo = account2 */\n      0x0100\n      exp\n      dup2\n      sload\n      dup2\n      0xffffffffffffffffffffffffffffffffffffffff\n      mul\n      not\n      and\n      swap1\n      dup4\n      0xffffffffffffffffffffffffffffffffffffffff\n      and\n      mul\n      or\n      swap1\n      sstore\n      pop\n        /* \"joint_savings.sol\":3699:3977  function setAccounts(address payable account1, address payable account2) public{... */\n      pop\n      pop\n      jump\t// out\n        /* \"joint_savings.sol\":1398:1425  uint public contractBalance */\n    tag_25:\n      sload(0x04)\n      dup2\n      jump\t// out\n        /* \"joint_savings.sol\":1362:1392  uint public lastWithdrawAmount */\n    tag_30:\n      sload(0x03)\n      dup2\n      jump\t// out\n        /* \"joint_savings.sol\":3284:3550  function deposit() public payable {... */\n    tag_33:\n        /* \"joint_savings.sol\":3522:3543  address(this).balance */\n      selfbalance\n        /* \"joint_savings.sol\":3504:3519  contractBalance */\n      0x04\n        /* \"joint_savings.sol\":3504:3543  contractBalance = address(this).balance */\n      dup2\n      swap1\n      sstore\n      pop\n        /* \"joint_savings.sol\":3284:3550  function deposit() public payable {... */\n      jump\t// out\n        /* \"joint_savings.sol\":1327:1356  address public lastToWithdraw */\n    tag_36:\n      0x02\n      0x00\n      swap1\n      sload\n      swap1\n      0x0100\n      exp\n      swap1\n      div\n      0xffffffffffffffffffffffffffffffffffffffff\n      and\n      dup2\n      jump\t// out\n        /* \"#utility.yul\":7:84   */\n    tag_52:\n        /* \"#utility.yul\":44:51   */\n      0x00\n        /* \"#utility.yul\":73:78   */\n      dup2\n        /* \"#utility.yul\":62:78   */\n      swap1\n      pop\n        /* \"#utility.yul\":7:84   */\n      swap2\n      swap1\n      pop\n      jump\t// out\n        /* \"#utility.yul\":90:270   */\n    tag_53:\n        /* \"#utility.yul\":138:215   */\n      0x4e487b7100000000000000000000000000000000000000000000000000000000\n        /* \"#utility.yul\":135:136   */\n      0x00\n        /* \"#utility.yul\":128:216   */\n      mstore\n        /* \"#utility.yul\":235:239   */\n      0x11\n        /* \"#utility.yul\":232:233   */\n      0x04\n        /* \"#utility.yul\":225:240   */\n      mstore\n        /* \"#utility.yul\":259:263   */\n      0x24\n        /* \"#utility.yul\":256:257   */\n      0x00\n        /* \"#utility.yul\":249:264   */\n      revert\n        /* \"#utility.yul\":276:467   */\n    tag_12:\n        /* \"#utility.yul\":316:319   */\n      0x00\n        /* \"#utility.yul\":335:355   */\n      tag_75\n        /* \"#utility.yul\":353:354   */\n      dup3\n        /* \"#utility.yul\":335:355   */\n      tag_52\n      jump\t// in\n    tag_75:\n        /* \"#utility.yul\":330:355   */\n      swap2\n      pop\n        /* \"#utility.yul\":369:389   */\n      tag_76\n        /* \"#utility.yul\":387:388   */\n      dup4\n        /* \"#utility.yul\":369:389   */\n      tag_52\n      jump\t// in\n    tag_76:\n        /* \"#utility.yul\":364:389   */\n      swap3\n      pop\n        /* \"#utility.yul\":412:413   */\n      dup3\n        /* \"#utility.yul\":409:410   */\n      dup3\n        /* \"#utility.yul\":405:414   */\n      add\n        /* \"#utility.yul\":398:414   */\n      swap1\n      pop\n        /* \"#utility.yul\":433:436   */\n      dup1\n        /* \"#utility.yul\":430:431   */\n      dup3\n        /* \"#utility.yul\":427:437   */\n      gt\n        /* \"#utility.yul\":424:460   */\n      iszero\n      tag_77\n      jumpi\n        /* \"#utility.yul\":440:458   */\n      tag_78\n      tag_53\n      jump\t// in\n    tag_78:\n        /* \"#utility.yul\":424:460   */\n    tag_77:\n        /* \"#utility.yul\":276:467   */\n      swap3\n      swap2\n      pop\n      pop\n      jump\t// out\n        /* \"#utility.yul\":554:671   */\n    tag_55:\n        /* \"#utility.yul\":663:664   */\n      0x00\n        /* \"#utility.yul\":660:661   */\n      dup1\n        /* \"#utility.yul\":653:665   */\n      revert\n        /* \"#utility.yul\":800:922   */\n    tag_57:\n        /* \"#utility.yul\":873:897   */\n      tag_83\n        /* \"#utility.yul\":891:896   */\n      dup2\n        /* \"#utility.yul\":873:897   */\n      tag_52\n      jump\t// in\n    tag_83:\n        /* \"#utility.yul\":866:871   */\n      dup2\n        /* \"#utility.yul\":863:898   */\n      eq\n        /* \"#utility.yul\":853:916   */\n      tag_84\n      jumpi\n        /* \"#utility.yul\":912:913   */\n      0x00\n        /* \"#utility.yul\":909:910   */\n      dup1\n        /* \"#utility.yul\":902:914   */\n      revert\n        /* \"#utility.yul\":853:916   */\n    tag_84:\n        /* \"#utility.yul\":800:922   */\n      pop\n      jump\t// out\n        /* \"#utility.yul\":928:1067   */\n    tag_58:\n        /* \"#utility.yul\":974:979   */\n      0x00\n        /* \"#utility.yul\":1012:1018   */\n      dup2\n        /* \"#utility.yul\":999:1019   */\n      calldataload\n        /* \"#utility.yul\":990:1019   */\n      swap1\n      pop\n        /* \"#utility.yul\":1028:1061   */\n      tag_86\n        /* \"#utility.yul\":1055:1060   */\n      dup2\n        /* \"#utility.yul\":1028:1061   */\n      tag_57\n      jump\t// in\n    tag_86:\n        /* \"#utility.yul\":928:1067   */\n      swap3\n      swap2\n      pop\n      pop\n      jump\t// out\n        /* \"#utility.yul\":1073:1199   */\n    tag_59:\n        /* \"#utility.yul\":1110:1117   */\n      0x00\n        /* \"#utility.yul\":1150:1192   */\n      0xffffffffffffffffffffffffffffffffffffffff\n        /* \"#utility.yul\":1143:1148   */\n      dup3\n        /* \"#utility.yul\":1139:1193   */\n      and\n        /* \"#utility.yul\":1128:1193   */\n      swap1\n      pop\n        /* \"#utility.yul\":1073:1199   */\n      swap2\n      swap1\n      pop\n      jump\t// out\n        /* \"#utility.yul\":1205:1309   */\n    tag_60:\n        /* \"#utility.yul\":1250:1257   */\n      0x00\n        /* \"#utility.yul\":1279:1303   */\n      tag_89\n        /* \"#utility.yul\":1297:1302   */\n      dup3\n        /* \"#utility.yul\":1279:1303   */\n      tag_59\n      jump\t// in\n    tag_89:\n        /* \"#utility.yul\":1268:1303   */\n      swap1\n      pop\n        /* \"#utility.yul\":1205:1309   */\n      swap2\n      swap1\n      pop\n      jump\t// out\n        /* \"#utility.yul\":1315:1453   */\n    tag_61:\n        /* \"#utility.yul\":1396:1428   */\n      tag_91\n        /* \"#utility.yul\":1422:1427   */\n      dup2\n        /* \"#utility.yul\":1396:1428   */\n      tag_60\n      jump\t// in\n    tag_91:\n        /* \"#utility.yul\":1389:1394   */\n      dup2\n        /* \"#utility.yul\":1386:1429   */\n      eq\n        /* \"#utility.yul\":1376:1447   */\n      tag_92\n      jumpi\n        /* \"#utility.yul\":1443:1444   */\n      0x00\n        /* \"#utility.yul\":1440:1441   */\n      dup1\n        /* \"#utility.yul\":1433:1445   */\n      revert\n        /* \"#utility.yul\":1376:1447   */\n    tag_92:\n        /* \"#utility.yul\":1315:1453   */\n      pop\n      jump\t// out\n        /* \"#utility.yul\":1459:1614   */\n    tag_62:\n        /* \"#utility.yul\":1513:1518   */\n      0x00\n        /* \"#utility.yul\":1551:1557   */\n      dup2\n        /* \"#utility.yul\":1538:1558   */\n      calldataload\n        /* \"#utility.yul\":1529:1558   */\n      swap1\n      pop\n        /* \"#utility.yul\":1567:1608   */\n      tag_94\n        /* \"#utility.yul\":1602:1607   */\n      dup2\n        /* \"#utility.yul\":1567:1608   */\n      tag_61\n      jump\t// in\n    tag_94:\n        /* \"#utility.yul\":1459:1614   */\n      swap3\n      swap2\n      pop\n      pop\n      jump\t// out\n        /* \"#utility.yul\":1620:2110   */\n    tag_16:\n        /* \"#utility.yul\":1696:1702   */\n      0x00\n        /* \"#utility.yul\":1704:1710   */\n      dup1\n        /* \"#utility.yul\":1753:1755   */\n      0x40\n        /* \"#utility.yul\":1741:1750   */\n      dup4\n        /* \"#utility.yul\":1732:1739   */\n      dup6\n        /* \"#utility.yul\":1728:1751   */\n      sub\n        /* \"#utility.yul\":1724:1756   */\n      slt\n        /* \"#utility.yul\":1721:1840   */\n      iszero\n      tag_96\n      jumpi\n        /* \"#utility.yul\":1759:1838   */\n      tag_97\n      tag_55\n      jump\t// in\n    tag_97:\n        /* \"#utility.yul\":1721:1840   */\n    tag_96:\n        /* \"#utility.yul\":1879:1880   */\n      0x00\n        /* \"#utility.yul\":1904:1957   */\n      tag_98\n        /* \"#utility.yul\":1949:1956   */\n      dup6\n        /* \"#utility.yul\":1940:1946   */\n      dup3\n        /* \"#utility.yul\":1929:1938   */\n      dup7\n        /* \"#utility.yul\":1925:1947   */\n      add\n        /* \"#utility.yul\":1904:1957   */\n      tag_58\n      jump\t// in\n    tag_98:\n        /* \"#utility.yul\":1894:1957   */\n      swap3\n      pop\n        /* \"#utility.yul\":1850:1967   */\n      pop\n        /* \"#utility.yul\":2006:2008   */\n      0x20\n        /* \"#utility.yul\":2032:2093   */\n      tag_99\n        /* \"#utility.yul\":2085:2092   */\n      dup6\n        /* \"#utility.yul\":2076:2082   */\n      dup3\n        /* \"#utility.yul\":2065:2074   */\n      dup7\n        /* \"#utility.yul\":2061:2083   */\n      add\n        /* \"#utility.yul\":2032:2093   */\n      tag_62\n      jump\t// in\n    tag_99:\n        /* \"#utility.yul\":2022:2093   */\n      swap2\n      pop\n        /* \"#utility.yul\":1977:2103   */\n      pop\n        /* \"#utility.yul\":1620:2110   */\n      swap3\n      pop\n      swap3\n      swap1\n      pop\n      jump\t// out\n        /* \"#utility.yul\":2116:2622   */\n    tag_21:\n        /* \"#utility.yul\":2200:2206   */\n      0x00\n        /* \"#utility.yul\":2208:2214   */\n      dup1\n        /* \"#utility.yul\":2257:2259   */\n      0x40\n        /* \"#utility.yul\":2245:2254   */\n      dup4\n        /* \"#utility.yul\":2236:2243   */\n      dup6\n        /* \"#utility.yul\":2232:2255   */\n      sub\n        /* \"#utility.yul\":2228:2260   */\n      slt\n        /* \"#utility.yul\":2225:2344   */\n      iszero\n      tag_101\n      jumpi\n        /* \"#utility.yul\":2263:2342   */\n      tag_102\n      tag_55\n      jump\t// in\n    tag_102:\n        /* \"#utility.yul\":2225:2344   */\n    tag_101:\n        /* \"#utility.yul\":2383:2384   */\n      0x00\n        /* \"#utility.yul\":2408:2469   */\n      tag_103\n        /* \"#utility.yul\":2461:2468   */\n      dup6\n        /* \"#utility.yul\":2452:2458   */\n      dup3\n        /* \"#utility.yul\":2441:2450   */\n      dup7\n        /* \"#utility.yul\":2437:2459   */\n      add\n        /* \"#utility.yul\":2408:2469   */\n      tag_62\n      jump\t// in\n    tag_103:\n        /* \"#utility.yul\":2398:2469   */\n      swap3\n      pop\n        /* \"#utility.yul\":2354:2479   */\n      pop\n        /* \"#utility.yul\":2518:2520   */\n      0x20\n        /* \"#utility.yul\":2544:2605   */\n      tag_104\n        /* \"#utility.yul\":2597:2604   */\n      dup6\n        /* \"#utility.yul\":2588:2594   */\n      dup3\n        /* \"#utility.yul\":2577:2586   */\n      dup7\n        /* \"#utility.yul\":2573:2595   */\n      add\n        /* \"#utility.yul\":2544:2605   */\n      tag_62\n      jump\t// in\n    tag_104:\n        /* \"#utility.yul\":2534:2605   */\n      swap2\n      pop\n        /* \"#utility.yul\":2489:2615   */\n      pop\n        /* \"#utility.yul\":2116:2622   */\n      swap3\n      pop\n      swap3\n      swap1\n      pop\n      jump\t// out\n        /* \"#utility.yul\":2628:2746   */\n    tag_63:\n        /* \"#utility.yul\":2715:2739   */\n      tag_106\n        /* \"#utility.yul\":2733:2738   */\n      dup2\n        /* \"#utility.yul\":2715:2739   */\n      tag_52\n      jump\t// in\n    tag_106:\n        /* \"#utility.yul\":2710:2713   */\n      dup3\n        /* \"#utility.yul\":2703:2740   */\n      mstore\n        /* \"#utility.yul\":2628:2746   */\n      pop\n      pop\n      jump\t// out\n        /* \"#utility.yul\":2752:2974   */\n    tag_27:\n        /* \"#utility.yul\":2845:2849   */\n      0x00\n        /* \"#utility.yul\":2883:2885   */\n      0x20\n        /* \"#utility.yul\":2872:2881   */\n      dup3\n        /* \"#utility.yul\":2868:2886   */\n      add\n        /* \"#utility.yul\":2860:2886   */\n      swap1\n      pop\n        /* \"#utility.yul\":2896:2967   */\n      tag_108\n        /* \"#utility.yul\":2964:2965   */\n      0x00\n        /* \"#utility.yul\":2953:2962   */\n      dup4\n        /* \"#utility.yul\":2949:2966   */\n      add\n        /* \"#utility.yul\":2940:2946   */\n      dup5\n        /* \"#utility.yul\":2896:2967   */\n      tag_63\n      jump\t// in\n    tag_108:\n        /* \"#utility.yul\":2752:2974   */\n      swap3\n      swap2\n      pop\n      pop\n      jump\t// out\n        /* \"#utility.yul\":2980:3076   */\n    tag_64:\n        /* \"#utility.yul\":3017:3024   */\n      0x00\n        /* \"#utility.yul\":3046:3070   */\n      tag_110\n        /* \"#utility.yul\":3064:3069   */\n      dup3\n        /* \"#utility.yul\":3046:3070   */\n      tag_59\n      jump\t// in\n    tag_110:\n        /* \"#utility.yul\":3035:3070   */\n      swap1\n      pop\n        /* \"#utility.yul\":2980:3076   */\n      swap2\n      swap1\n      pop\n      jump\t// out\n        /* \"#utility.yul\":3082:3200   */\n    tag_65:\n        /* \"#utility.yul\":3169:3193   */\n      tag_112\n        /* \"#utility.yul\":3187:3192   */\n      dup2\n        /* \"#utility.yul\":3169:3193   */\n      tag_64\n      jump\t// in\n    tag_112:\n        /* \"#utility.yul\":3164:3167   */\n      dup3\n        /* \"#utility.yul\":3157:3194   */\n      mstore\n        /* \"#utility.yul\":3082:3200   */\n      pop\n      pop\n      jump\t// out\n        /* \"#utility.yul\":3206:3428   */\n    tag_38:\n        /* \"#utility.yul\":3299:3303   */\n      0x00\n        /* \"#utility.yul\":3337:3339   */\n      0x20\n        /* \"#utility.yul\":3326:3335   */\n      dup3\n        /* \"#utility.yul\":3322:3340   */\n      add\n        /* \"#utility.yul\":3314:3340   */\n      swap1\n      pop\n        /* \"#utility.yul\":3350:3421   */\n      tag_114\n        /* \"#utility.yul\":3418:3419   */\n      0x00\n        /* \"#utility.yul\":3407:3416   */\n      dup4\n        /* \"#utility.yul\":3403:3420   */\n      add\n        /* \"#utility.yul\":3394:3400   */\n      dup5\n        /* \"#utility.yul\":3350:3421   */\n      tag_65\n      jump\t// in\n    tag_114:\n        /* \"#utility.yul\":3206:3428   */\n      swap3\n      swap2\n      pop\n      pop\n      jump\t// out\n        /* \"#utility.yul\":3434:3603   */\n    tag_66:\n        /* \"#utility.yul\":3518:3529   */\n      0x00\n        /* \"#utility.yul\":3552:3558   */\n      dup3\n        /* \"#utility.yul\":3547:3550   */\n      dup3\n        /* \"#utility.yul\":3540:3559   */\n      mstore\n        /* \"#utility.yul\":3592:3596   */\n      0x20\n        /* \"#utility.yul\":3587:3590   */\n      dup3\n        /* \"#utility.yul\":3583:3597   */\n      add\n        /* \"#utility.yul\":3568:3597   */\n      swap1\n      pop\n        /* \"#utility.yul\":3434:3603   */\n      swap3\n      swap2\n      pop\n      pop\n      jump\t// out\n        /* \"#utility.yul\":3609:3786   */\n    tag_67:\n        /* \"#utility.yul\":3749:3778   */\n      0x596f7520646f6e2774206f776e2074686973206163636f756e74210000000000\n        /* \"#utility.yul\":3745:3746   */\n      0x00\n        /* \"#utility.yul\":3737:3743   */\n      dup3\n        /* \"#utility.yul\":3733:3747   */\n      add\n        /* \"#utility.yul\":3726:3779   */\n      mstore\n        /* \"#utility.yul\":3609:3786   */\n      pop\n      jump\t// out\n        /* \"#utility.yul\":3792:4158   */\n    tag_68:\n        /* \"#utility.yul\":3934:3937   */\n      0x00\n        /* \"#utility.yul\":3955:4022   */\n      tag_118\n        /* \"#utility.yul\":4019:4021   */\n      0x1b\n        /* \"#utility.yul\":4014:4017   */\n      dup4\n        /* \"#utility.yul\":3955:4022   */\n      tag_66\n      jump\t// in\n    tag_118:\n        /* \"#utility.yul\":3948:4022   */\n      swap2\n      pop\n        /* \"#utility.yul\":4031:4124   */\n      tag_119\n        /* \"#utility.yul\":4120:4123   */\n      dup3\n        /* \"#utility.yul\":4031:4124   */\n      tag_67\n      jump\t// in\n    tag_119:\n        /* \"#utility.yul\":4149:4151   */\n      0x20\n        /* \"#utility.yul\":4144:4147   */\n      dup3\n        /* \"#utility.yul\":4140:4152   */\n      add\n        /* \"#utility.yul\":4133:4152   */\n      swap1\n      pop\n        /* \"#utility.yul\":3792:4158   */\n      swap2\n      swap1\n      pop\n      jump\t// out\n        /* \"#utility.yul\":4164:4583   */\n    tag_43:\n        /* \"#utility.yul\":4330:4334   */\n      0x00\n        /* \"#utility.yul\":4368:4370   */\n      0x20\n        /* \"#utility.yul\":4357:4366   */\n      dup3\n        /* \"#utility.yul\":4353:4371   */\n      add\n        /* \"#utility.yul\":4345:4371   */\n      swap1\n      pop\n        /* \"#utility.yul\":4417:4426   */\n      dup2\n        /* \"#utility.yul\":4411:4415   */\n      dup2\n        /* \"#utility.yul\":4407:4427   */\n      sub\n        /* \"#utility.yul\":4403:4404   */\n      0x00\n        /* \"#utility.yul\":4392:4401   */\n      dup4\n        /* \"#utility.yul\":4388:4405   */\n      add\n        /* \"#utility.yul\":4381:4428   */\n      mstore\n        /* \"#utility.yul\":4445:4576   */\n      tag_121\n        /* \"#utility.yul\":4571:4575   */\n      dup2\n        /* \"#utility.yul\":4445:4576   */\n      tag_68\n      jump\t// in\n    tag_121:\n        /* \"#utility.yul\":4437:4576   */\n      swap1\n      pop\n        /* \"#utility.yul\":4164:4583   */\n      swap2\n      swap1\n      pop\n      jump\t// out\n        /* \"#utility.yul\":4589:4758   */\n    tag_69:\n        /* \"#utility.yul\":4729:4750   */\n      0x496e73756666696369656e742066756e64732100000000000000000000000000\n        /* \"#utility.yul\":4725:4726   */\n      0x00\n        /* \"#utility.yul\":4717:4723   */\n      dup3\n        /* \"#utility.yul\":4713:4727   */\n      add\n        /* \"#utility.yul\":4706:4751   */\n      mstore\n        /* \"#utility.yul\":4589:4758   */\n      pop\n      jump\t// out\n        /* \"#utility.yul\":4764:5130   */\n    tag_70:\n        /* \"#utility.yul\":4906:4909   */\n      0x00\n        /* \"#utility.yul\":4927:4994   */\n      tag_124\n        /* \"#utility.yul\":4991:4993   */\n      0x13\n        /* \"#utility.yul\":4986:4989   */\n      dup4\n        /* \"#utility.yul\":4927:4994   */\n      tag_66\n      jump\t// in\n    tag_124:\n        /* \"#utility.yul\":4920:4994   */\n      swap2\n      pop\n        /* \"#utility.yul\":5003:5096   */\n      tag_125\n        /* \"#utility.yul\":5092:5095   */\n      dup3\n        /* \"#utility.yul\":5003:5096   */\n      tag_69\n      jump\t// in\n    tag_125:\n        /* \"#utility.yul\":5121:5123   */\n      0x20\n        /* \"#utility.yul\":5116:5119   */\n      dup3\n        /* \"#utility.yul\":5112:5124   */\n      add\n        /* \"#utility.yul\":5105:5124   */\n      swap1\n      pop\n        /* \"#utility.yul\":4764:5130   */\n      swap2\n      swap1\n      pop\n      jump\t// out\n        /* \"#utility.yul\":5136:5555   */\n    tag_46:\n        /* \"#utility.yul\":5302:5306   */\n      0x00\n        /* \"#utility.yul\":5340:5342   */\n      0x20\n        /* \"#utility.yul\":5329:5338   */\n      dup3\n        /* \"#utility.yul\":5325:5343   */\n      add\n        /* \"#utility.yul\":5317:5343   */\n      swap1\n      pop\n        /* \"#utility.yul\":5389:5398   */\n      dup2\n        /* \"#utility.yul\":5383:5387   */\n      dup2\n        /* \"#utility.yul\":5379:5399   */\n      sub\n        /* \"#utility.yul\":5375:5376   */\n      0x00\n        /* \"#utility.yul\":5364:5373   */\n      dup4\n        /* \"#utility.yul\":5360:5377   */\n      add\n        /* \"#utility.yul\":5353:5400   */\n      mstore\n        /* \"#utility.yul\":5417:5548   */\n      tag_127\n        /* \"#utility.yul\":5543:5547   */\n      dup2\n        /* \"#utility.yul\":5417:5548   */\n      tag_70\n      jump\t// in\n    tag_127:\n        /* \"#utility.yul\":5409:5548   */\n      swap1\n      pop\n        /* \"#utility.yul\":5136:5555   */\n      swap2\n      swap1\n      pop\n      jump\t// out\n\n    auxdata: 0xa26469706673582212207dcfb1392ad5a063276bf96afac556a28cf1288d7abd6cce4ddabb69f42f69eb64736f6c63430008110033\n}\n",
				"bytecode": {
					"linkReferences": {},
					"object": "608060405234801561001057600080fd5b50610733806100206000396000f3fe6080604052600436106100585760003560e01c8062f714ce1461007c57806343e02605146100a55780638b7afe2e146100ce578063b831461e146100f9578063d0e30db014610124578063e15e1c951461012e57610077565b3661007757346004600082825461006f919061046b565b925050819055005b600080fd5b34801561008857600080fd5b506100a3600480360381019061009e919061052e565b610159565b005b3480156100b157600080fd5b506100cc60048036038101906100c7919061056e565b610372565b005b3480156100da57600080fd5b506100e36103f7565b6040516100f091906105bd565b60405180910390f35b34801561010557600080fd5b5061010e6103fd565b60405161011b91906105bd565b60405180910390f35b61012c610403565b005b34801561013a57600080fd5b5061014361040c565b60405161015091906105f9565b60405180910390f35b60008054906101000a900473ffffffffffffffffffffffffffffffffffffffff1673ffffffffffffffffffffffffffffffffffffffff168173ffffffffffffffffffffffffffffffffffffffff1614806102005750600160009054906101000a900473ffffffffffffffffffffffffffffffffffffffff1673ffffffffffffffffffffffffffffffffffffffff168173ffffffffffffffffffffffffffffffffffffffff16145b61023f576040517f08c379a000000000000000000000000000000000000000000000000000000000815260040161023690610671565b60405180910390fd5b81471015610282576040517f08c379a0000000000000000000000000000000000000000000000000000000008152600401610279906106dd565b60405180910390fd5b8073ffffffffffffffffffffffffffffffffffffffff16600260009054906101000a900473ffffffffffffffffffffffffffffffffffffffff1673ffffffffffffffffffffffffffffffffffffffff16146103195780600260006101000a81548173ffffffffffffffffffffffffffffffffffffffff021916908373ffffffffffffffffffffffffffffffffffffffff1602179055505b8073ffffffffffffffffffffffffffffffffffffffff166108fc839081150290604051600060405180830381858888f1935050505015801561035f573d6000803e3d6000fd5b5081600381905550476004819055505050565b816000806101000a81548173ffffffffffffffffffffffffffffffffffffffff021916908373ffffffffffffffffffffffffffffffffffffffff16021790555080600160006101000a81548173ffffffffffffffffffffffffffffffffffffffff021916908373ffffffffffffffffffffffffffffffffffffffff1602179055505050565b60045481565b60035481565b47600481905550565b600260009054906101000a900473ffffffffffffffffffffffffffffffffffffffff1681565b6000819050919050565b7f4e487b7100000000000000000000000000000000000000000000000000000000600052601160045260246000fd5b600061047682610432565b915061048183610432565b92508282019050808211156104995761049861043c565b5b92915050565b600080fd5b6104ad81610432565b81146104b857600080fd5b50565b6000813590506104ca816104a4565b92915050565b600073ffffffffffffffffffffffffffffffffffffffff82169050919050565b60006104fb826104d0565b9050919050565b61050b816104f0565b811461051657600080fd5b50565b60008135905061052881610502565b92915050565b600080604083850312156105455761054461049f565b5b6000610553858286016104bb565b925050602061056485828601610519565b9150509250929050565b600080604083850312156105855761058461049f565b5b600061059385828601610519565b92505060206105a485828601610519565b9150509250929050565b6105b781610432565b82525050565b60006020820190506105d260008301846105ae565b92915050565b60006105e3826104d0565b9050919050565b6105f3816105d8565b82525050565b600060208201905061060e60008301846105ea565b92915050565b600082825260208201905092915050565b7f596f7520646f6e2774206f776e2074686973206163636f756e74210000000000600082015250565b600061065b601b83610614565b915061066682610625565b602082019050919050565b6000602082019050818103600083015261068a8161064e565b9050919050565b7f496e73756666696369656e742066756e64732100000000000000000000000000600082015250565b60006106c7601383610614565b91506106d282610691565b602082019050919050565b600060208201905081810360008301526106f6816106ba565b905091905056fea26469706673582212207dcfb1392ad5a063276bf96afac556a28cf1288d7abd6cce4ddabb69f42f69eb64736f6c63430008110033",
					"opcodes": "PUSH1 0x80 PUSH1 0x40 MSTORE CALLVALUE DUP1 ISZERO PUSH2 0x10 JUMPI PUSH1 0x0 DUP1 REVERT JUMPDEST POP PUSH2 0x733 DUP1 PUSH2 0x20 PUSH1 0x0 CODECOPY PUSH1 0x0 RETURN INVALID PUSH1 0x80 PUSH1 0x40 MSTORE PUSH1 0x4 CALLDATASIZE LT PUSH2 0x58 JUMPI PUSH1 0x0 CALLDATALOAD PUSH1 0xE0 SHR DUP1 PUSH3 0xF714CE EQ PUSH2 0x7C JUMPI DUP1 PUSH4 0x43E02605 EQ PUSH2 0xA5 JUMPI DUP1 PUSH4 0x8B7AFE2E EQ PUSH2 0xCE JUMPI DUP1 PUSH4 0xB831461E EQ PUSH2 0xF9 JUMPI DUP1 PUSH4 0xD0E30DB0 EQ PUSH2 0x124 JUMPI DUP1 PUSH4 0xE15E1C95 EQ PUSH2 0x12E JUMPI PUSH2 0x77 JUMP JUMPDEST CALLDATASIZE PUSH2 0x77 JUMPI CALLVALUE PUSH1 0x4 PUSH1 0x0 DUP3 DUP3 SLOAD PUSH2 0x6F SWAP2 SWAP1 PUSH2 0x46B JUMP JUMPDEST SWAP3 POP POP DUP2 SWAP1 SSTORE STOP JUMPDEST PUSH1 0x0 DUP1 REVERT JUMPDEST CALLVALUE DUP1 ISZERO PUSH2 0x88 JUMPI PUSH1 0x0 DUP1 REVERT JUMPDEST POP PUSH2 0xA3 PUSH1 0x4 DUP1 CALLDATASIZE SUB DUP2 ADD SWAP1 PUSH2 0x9E SWAP2 SWAP1 PUSH2 0x52E JUMP JUMPDEST PUSH2 0x159 JUMP JUMPDEST STOP JUMPDEST CALLVALUE DUP1 ISZERO PUSH2 0xB1 JUMPI PUSH1 0x0 DUP1 REVERT JUMPDEST POP PUSH2 0xCC PUSH1 0x4 DUP1 CALLDATASIZE SUB DUP2 ADD SWAP1 PUSH2 0xC7 SWAP2 SWAP1 PUSH2 0x56E JUMP JUMPDEST PUSH2 0x372 JUMP JUMPDEST STOP JUMPDEST CALLVALUE DUP1 ISZERO PUSH2 0xDA JUMPI PUSH1 0x0 DUP1 REVERT JUMPDEST POP PUSH2 0xE3 PUSH2 0x3F7 JUMP JUMPDEST PUSH1 0x40 MLOAD PUSH2 0xF0 SWAP2 SWAP1 PUSH2 0x5BD JUMP JUMPDEST PUSH1 0x40 MLOAD DUP1 SWAP2 SUB SWAP1 RETURN JUMPDEST CALLVALUE DUP1 ISZERO PUSH2 0x105 JUMPI PUSH1 0x0 DUP1 REVERT JUMPDEST POP PUSH2 0x10E PUSH2 0x3FD JUMP JUMPDEST PUSH1 0x40 MLOAD PUSH2 0x11B SWAP2 SWAP1 PUSH2 0x5BD JUMP JUMPDEST PUSH1 0x40 MLOAD DUP1 SWAP2 SUB SWAP1 RETURN JUMPDEST PUSH2 0x12C PUSH2 0x403 JUMP JUMPDEST STOP JUMPDEST CALLVALUE DUP1 ISZERO PUSH2 0x13A JUMPI PUSH1 0x0 DUP1 REVERT JUMPDEST POP PUSH2 0x143 PUSH2 0x40C JUMP JUMPDEST PUSH1 0x40 MLOAD PUSH2 0x150 SWAP2 SWAP1 PUSH2 0x5F9 JUMP JUMPDEST PUSH1 0x40 MLOAD DUP1 SWAP2 SUB SWAP1 RETURN JUMPDEST PUSH1 0x0 DUP1 SLOAD SWAP1 PUSH2 0x100 EXP SWAP1 DIV PUSH20 0xFFFFFFFFFFFFFFFFFFFFFFFFFFFFFFFFFFFFFFFF AND PUSH20 0xFFFFFFFFFFFFFFFFFFFFFFFFFFFFFFFFFFFFFFFF AND DUP2 PUSH20 0xFFFFFFFFFFFFFFFFFFFFFFFFFFFFFFFFFFFFFFFF AND EQ DUP1 PUSH2 0x200 JUMPI POP PUSH1 0x1 PUSH1 0x0 SWAP1 SLOAD SWAP1 PUSH2 0x100 EXP SWAP1 DIV PUSH20 0xFFFFFFFFFFFFFFFFFFFFFFFFFFFFFFFFFFFFFFFF AND PUSH20 0xFFFFFFFFFFFFFFFFFFFFFFFFFFFFFFFFFFFFFFFF AND DUP2 PUSH20 0xFFFFFFFFFFFFFFFFFFFFFFFFFFFFFFFFFFFFFFFF AND EQ JUMPDEST PUSH2 0x23F JUMPI PUSH1 0x40 MLOAD PUSH32 0x8C379A000000000000000000000000000000000000000000000000000000000 DUP2 MSTORE PUSH1 0x4 ADD PUSH2 0x236 SWAP1 PUSH2 0x671 JUMP JUMPDEST PUSH1 0x40 MLOAD DUP1 SWAP2 SUB SWAP1 REVERT JUMPDEST DUP2 SELFBALANCE LT ISZERO PUSH2 0x282 JUMPI PUSH1 0x40 MLOAD PUSH32 0x8C379A000000000000000000000000000000000000000000000000000000000 DUP2 MSTORE PUSH1 0x4 ADD PUSH2 0x279 SWAP1 PUSH2 0x6DD JUMP JUMPDEST PUSH1 0x40 MLOAD DUP1 SWAP2 SUB SWAP1 REVERT JUMPDEST DUP1 PUSH20 0xFFFFFFFFFFFFFFFFFFFFFFFFFFFFFFFFFFFFFFFF AND PUSH1 0x2 PUSH1 0x0 SWAP1 SLOAD SWAP1 PUSH2 0x100 EXP SWAP1 DIV PUSH20 0xFFFFFFFFFFFFFFFFFFFFFFFFFFFFFFFFFFFFFFFF AND PUSH20 0xFFFFFFFFFFFFFFFFFFFFFFFFFFFFFFFFFFFFFFFF AND EQ PUSH2 0x319 JUMPI DUP1 PUSH1 0x2 PUSH1 0x0 PUSH2 0x100 EXP DUP2 SLOAD DUP2 PUSH20 0xFFFFFFFFFFFFFFFFFFFFFFFFFFFFFFFFFFFFFFFF MUL NOT AND SWAP1 DUP4 PUSH20 0xFFFFFFFFFFFFFFFFFFFFFFFFFFFFFFFFFFFFFFFF AND MUL OR SWAP1 SSTORE POP JUMPDEST DUP1 PUSH20 0xFFFFFFFFFFFFFFFFFFFFFFFFFFFFFFFFFFFFFFFF AND PUSH2 0x8FC DUP4 SWAP1 DUP2 ISZERO MUL SWAP1 PUSH1 0x40 MLOAD PUSH1 0x0 PUSH1 0x40 MLOAD DUP1 DUP4 SUB DUP2 DUP6 DUP9 DUP9 CALL SWAP4 POP POP POP POP ISZERO DUP1 ISZERO PUSH2 0x35F JUMPI RETURNDATASIZE PUSH1 0x0 DUP1 RETURNDATACOPY RETURNDATASIZE PUSH1 0x0 REVERT JUMPDEST POP DUP2 PUSH1 0x3 DUP2 SWAP1 SSTORE POP SELFBALANCE PUSH1 0x4 DUP2 SWAP1 SSTORE POP POP POP JUMP JUMPDEST DUP2 PUSH1 0x0 DUP1 PUSH2 0x100 EXP DUP2 SLOAD DUP2 PUSH20 0xFFFFFFFFFFFFFFFFFFFFFFFFFFFFFFFFFFFFFFFF MUL NOT AND SWAP1 DUP4 PUSH20 0xFFFFFFFFFFFFFFFFFFFFFFFFFFFFFFFFFFFFFFFF AND MUL OR SWAP1 SSTORE POP DUP1 PUSH1 0x1 PUSH1 0x0 PUSH2 0x100 EXP DUP2 SLOAD DUP2 PUSH20 0xFFFFFFFFFFFFFFFFFFFFFFFFFFFFFFFFFFFFFFFF MUL NOT AND SWAP1 DUP4 PUSH20 0xFFFFFFFFFFFFFFFFFFFFFFFFFFFFFFFFFFFFFFFF AND MUL OR SWAP1 SSTORE POP POP POP JUMP JUMPDEST PUSH1 0x4 SLOAD DUP2 JUMP JUMPDEST PUSH1 0x3 SLOAD DUP2 JUMP JUMPDEST SELFBALANCE PUSH1 0x4 DUP2 SWAP1 SSTORE POP JUMP JUMPDEST PUSH1 0x2 PUSH1 0x0 SWAP1 SLOAD SWAP1 PUSH2 0x100 EXP SWAP1 DIV PUSH20 0xFFFFFFFFFFFFFFFFFFFFFFFFFFFFFFFFFFFFFFFF AND DUP2 JUMP JUMPDEST PUSH1 0x0 DUP2 SWAP1 POP SWAP2 SWAP1 POP JUMP JUMPDEST PUSH32 0x4E487B7100000000000000000000000000000000000000000000000000000000 PUSH1 0x0 MSTORE PUSH1 0x11 PUSH1 0x4 MSTORE PUSH1 0x24 PUSH1 0x0 REVERT JUMPDEST PUSH1 0x0 PUSH2 0x476 DUP3 PUSH2 0x432 JUMP JUMPDEST SWAP2 POP PUSH2 0x481 DUP4 PUSH2 0x432 JUMP JUMPDEST SWAP3 POP DUP3 DUP3 ADD SWAP1 POP DUP1 DUP3 GT ISZERO PUSH2 0x499 JUMPI PUSH2 0x498 PUSH2 0x43C JUMP JUMPDEST JUMPDEST SWAP3 SWAP2 POP POP JUMP JUMPDEST PUSH1 0x0 DUP1 REVERT JUMPDEST PUSH2 0x4AD DUP2 PUSH2 0x432 JUMP JUMPDEST DUP2 EQ PUSH2 0x4B8 JUMPI PUSH1 0x0 DUP1 REVERT JUMPDEST POP JUMP JUMPDEST PUSH1 0x0 DUP2 CALLDATALOAD SWAP1 POP PUSH2 0x4CA DUP2 PUSH2 0x4A4 JUMP JUMPDEST SWAP3 SWAP2 POP POP JUMP JUMPDEST PUSH1 0x0 PUSH20 0xFFFFFFFFFFFFFFFFFFFFFFFFFFFFFFFFFFFFFFFF DUP3 AND SWAP1 POP SWAP2 SWAP1 POP JUMP JUMPDEST PUSH1 0x0 PUSH2 0x4FB DUP3 PUSH2 0x4D0 JUMP JUMPDEST SWAP1 POP SWAP2 SWAP1 POP JUMP JUMPDEST PUSH2 0x50B DUP2 PUSH2 0x4F0 JUMP JUMPDEST DUP2 EQ PUSH2 0x516 JUMPI PUSH1 0x0 DUP1 REVERT JUMPDEST POP JUMP JUMPDEST PUSH1 0x0 DUP2 CALLDATALOAD SWAP1 POP PUSH2 0x528 DUP2 PUSH2 0x502 JUMP JUMPDEST SWAP3 SWAP2 POP POP JUMP JUMPDEST PUSH1 0x0 DUP1 PUSH1 0x40 DUP4 DUP6 SUB SLT ISZERO PUSH2 0x545 JUMPI PUSH2 0x544 PUSH2 0x49F JUMP JUMPDEST JUMPDEST PUSH1 0x0 PUSH2 0x553 DUP6 DUP3 DUP7 ADD PUSH2 0x4BB JUMP JUMPDEST SWAP3 POP POP PUSH1 0x20 PUSH2 0x564 DUP6 DUP3 DUP7 ADD PUSH2 0x519 JUMP JUMPDEST SWAP2 POP POP SWAP3 POP SWAP3 SWAP1 POP JUMP JUMPDEST PUSH1 0x0 DUP1 PUSH1 0x40 DUP4 DUP6 SUB SLT ISZERO PUSH2 0x585 JUMPI PUSH2 0x584 PUSH2 0x49F JUMP JUMPDEST JUMPDEST PUSH1 0x0 PUSH2 0x593 DUP6 DUP3 DUP7 ADD PUSH2 0x519 JUMP JUMPDEST SWAP3 POP POP PUSH1 0x20 PUSH2 0x5A4 DUP6 DUP3 DUP7 ADD PUSH2 0x519 JUMP JUMPDEST SWAP2 POP POP SWAP3 POP SWAP3 SWAP1 POP JUMP JUMPDEST PUSH2 0x5B7 DUP2 PUSH2 0x432 JUMP JUMPDEST DUP3 MSTORE POP POP JUMP JUMPDEST PUSH1 0x0 PUSH1 0x20 DUP3 ADD SWAP1 POP PUSH2 0x5D2 PUSH1 0x0 DUP4 ADD DUP5 PUSH2 0x5AE JUMP JUMPDEST SWAP3 SWAP2 POP POP JUMP JUMPDEST PUSH1 0x0 PUSH2 0x5E3 DUP3 PUSH2 0x4D0 JUMP JUMPDEST SWAP1 POP SWAP2 SWAP1 POP JUMP JUMPDEST PUSH2 0x5F3 DUP2 PUSH2 0x5D8 JUMP JUMPDEST DUP3 MSTORE POP POP JUMP JUMPDEST PUSH1 0x0 PUSH1 0x20 DUP3 ADD SWAP1 POP PUSH2 0x60E PUSH1 0x0 DUP4 ADD DUP5 PUSH2 0x5EA JUMP JUMPDEST SWAP3 SWAP2 POP POP JUMP JUMPDEST PUSH1 0x0 DUP3 DUP3 MSTORE PUSH1 0x20 DUP3 ADD SWAP1 POP SWAP3 SWAP2 POP POP JUMP JUMPDEST PUSH32 0x596F7520646F6E2774206F776E2074686973206163636F756E74210000000000 PUSH1 0x0 DUP3 ADD MSTORE POP JUMP JUMPDEST PUSH1 0x0 PUSH2 0x65B PUSH1 0x1B DUP4 PUSH2 0x614 JUMP JUMPDEST SWAP2 POP PUSH2 0x666 DUP3 PUSH2 0x625 JUMP JUMPDEST PUSH1 0x20 DUP3 ADD SWAP1 POP SWAP2 SWAP1 POP JUMP JUMPDEST PUSH1 0x0 PUSH1 0x20 DUP3 ADD SWAP1 POP DUP2 DUP2 SUB PUSH1 0x0 DUP4 ADD MSTORE PUSH2 0x68A DUP2 PUSH2 0x64E JUMP JUMPDEST SWAP1 POP SWAP2 SWAP1 POP JUMP JUMPDEST PUSH32 0x496E73756666696369656E742066756E64732100000000000000000000000000 PUSH1 0x0 DUP3 ADD MSTORE POP JUMP JUMPDEST PUSH1 0x0 PUSH2 0x6C7 PUSH1 0x13 DUP4 PUSH2 0x614 JUMP JUMPDEST SWAP2 POP PUSH2 0x6D2 DUP3 PUSH2 0x691 JUMP JUMPDEST PUSH1 0x20 DUP3 ADD SWAP1 POP SWAP2 SWAP1 POP JUMP JUMPDEST PUSH1 0x0 PUSH1 0x20 DUP3 ADD SWAP1 POP DUP2 DUP2 SUB PUSH1 0x0 DUP4 ADD MSTORE PUSH2 0x6F6 DUP2 PUSH2 0x6BA JUMP JUMPDEST SWAP1 POP SWAP2 SWAP1 POP JUMP INVALID LOG2 PUSH5 0x6970667358 0x22 SLT KECCAK256 PUSH30 0xCFB1392AD5A063276BF96AFAC556A28CF1288D7ABD6CCE4DDABB69F42F69 0xEB PUSH5 0x736F6C6343 STOP ADDMOD GT STOP CALLER "
				},
				"gasEstimates": {
					"creation": {
						"codeDepositCost": "368600",
						"executionCost": "405",
						"totalCost": "369005"
					},
					"external": {
						"contractBalance()": "2451",
						"deposit()": "22302",
						"lastToWithdraw()": "2602",
						"lastWithdrawAmount()": "2473",
						"setAccounts(address,address)": "infinite",
						"withdraw(uint256,address)": "infinite"
					}
				},
				"methodIdentifiers": {
					"contractBalance()": "8b7afe2e",
					"deposit()": "d0e30db0",
					"lastToWithdraw()": "e15e1c95",
					"lastWithdrawAmount()": "b831461e",
					"setAccounts(address,address)": "43e02605",
					"withdraw(uint256,address)": "00f714ce"
				}
			},
			"storageLayout": {
				"storage": [
					{
						"astId": 3,
						"contract": "joint_savings.sol:JointSavings",
						"label": "accountOne",
						"offset": 0,
						"slot": "0",
						"type": "t_address_payable"
					},
					{
						"astId": 5,
						"contract": "joint_savings.sol:JointSavings",
						"label": "accountTwo",
						"offset": 0,
						"slot": "1",
						"type": "t_address_payable"
					},
					{
						"astId": 7,
						"contract": "joint_savings.sol:JointSavings",
						"label": "lastToWithdraw",
						"offset": 0,
						"slot": "2",
						"type": "t_address"
					},
					{
						"astId": 9,
						"contract": "joint_savings.sol:JointSavings",
						"label": "lastWithdrawAmount",
						"offset": 0,
						"slot": "3",
						"type": "t_uint256"
					},
					{
						"astId": 11,
						"contract": "joint_savings.sol:JointSavings",
						"label": "contractBalance",
						"offset": 0,
						"slot": "4",
						"type": "t_uint256"
					}
				],
				"types": {
					"t_address": {
						"encoding": "inplace",
						"label": "address",
						"numberOfBytes": "20"
					},
					"t_address_payable": {
						"encoding": "inplace",
						"label": "address payable",
						"numberOfBytes": "20"
					},
					"t_uint256": {
						"encoding": "inplace",
						"label": "uint256",
						"numberOfBytes": "32"
					}
				}
			},
			"userdoc": {
				"kind": "user",
				"methods": {},
				"version": 1
			}
		}
	}
}